S01500006C65645F7061747465726E5F312E73726563ED
S11300000C942A000C9434000C9434000C943400A6
S11300100C9434000C9434000C9434000C9434008C
S11300200C9434000C9434000C9434000C9434007C
S11300300C9434000C9434000C9434000C9434006C
S11300400C9434000C9434000C9434000C9434005C
S11300500C94340011241FBECFE5D8E0DEBFCDBF21
S11300600E9436000C9453000C9400008FEF8ABB5E
S113007080E090E014C021E030E0082E02C0220F9E
S1130080331F0A94E2F72BBB2FEF39E648E12150E6
S113009030404040E1F700C000001BBA01968830B0
S10D00A091054CF3E5CFF894FFCF6F
S9030000FC
