S01500006C65645F7061747465726E5F322E73726563EC
S11300000C942A000C9434000C9434000C943400A6
S11300100C9434000C9434000C9434000C9434008C
S11300200C9434000C9434000C9434000C9434007C
S11300300C9434000C9434000C9434000C9434006C
S11300400C9434000C9434000C9434000C9434005C
S11300500C94340011241FBECFE5D8E0DEBFCDBF21
S11300600E9436000C948D000C9400008FEF8ABB24
S113007023E030E023C06BB381E090E0AC01022EBA
S113008002C0440F551F0A94E2F7462B4BBB6BB3D7
S113009047E050E0421B530B02C0880F991F4A955A
S11300A0E2F7862B8BBB4FEF89E698E14150804005
S11300B09040E1F700C00000215031093323DCF601
S11300C020E030E026C05BB381E090E0BC01022E6A
S11300D002C0660F771F0A94E2F7462F4095452326
S11300E04BBB4BB367E070E0621B730B02C0880F1D
S11300F0991F6A95E2F7809584238BBB4FEF89E6BD
S113010098E1415080409040E1F700C000002F5F2B
S11101103F4F24303105BCF2ABCFF894FFCF43
S9030000FC
