S01700004C43445F496E746572666163696E672E7372656371
S113000071C000008EC000008CC000008AC00000D7
S113001088C0000086C0000084C0000082C00000C8
S113002080C000007EC000007CC000007AC00000D8
S113003078C0000076C0000074C0000072C00000E8
S113004070C000006EC000006CC000006AC00000F8
S113005068C0000066C0000064C0000062C0000008
S113006060C000005EC000005CC000005AC0000018
S113007058C0000056C0000054C0000052C0000028
S113008050C000004EC000004CC000004AC0000038
S113009048C0000046C0000044C0000042C0000048
S11300A040C000003EC000003CC000003AC0000058
S11300B038C0000036C0000034C0000032C0000068
S11300C030C000002EC000002CC000002AC0000078
S11300D028C0000026C0000024C0000022C0000088
S11300E020C0000011241FBECFEFD1E2DEBFCDBF80
S11300F000E00CBF12E0A0E0B2E0E2E7F6E000E0CE
S11301000BBF02C007900D92AE30B107D9F722E0C1
S1130110AEE0B2E001C01D92AB31B207E1F763D2A9
S1130120A6C26ECF87B1876087B987B1806F87B960
S113013088B1887F88B988B18F7088B9089586E6B8
S11301409EE00197F1F7000088B18E7F88B988B1ED
S11301508D7F88B980E388B998B1946098B9EFEF3E
S1130160F7E43197F1F700C0000098B19B7F98B98C
S1130170E6E6FEE03197F1F7000098B19E7F98B96A
S113018098B19D7F98B988B998B1946098B9EFEF08
S1130190F7E43197F1F700C0000098B19B7F98B95C
S11301A0E6E6FEE03197F1F7000098B19E7F98B93A
S11301B098B19D7F98B988B988B1846088B98FEF68
S11301C097E40197F1F700C0000088B18B7F88B9EC
S11301D0E6E6FEE03197F1F7000088B18E7F88B93A
S11301E088B18D7F88B980E288B988B1846088B984
S11301F08FEF97E40197F1F700C0000088B18B7F7F
S113020088B90895382F307F28B12F7028B998B154
S1130210932B98B998B19E7F98B998B19D7F98B95E
S113022098B1946098B9EFEFF7E43197F1F700C013
S1130230000098B19B7F98B98295807F98B19F7098
S113024098B998B1892B88B988B18E7F88B988B15B
S11302508D7F88B988B1846088B98FEF97E401975E
S1130260F1F700C0000088B18B7F88B9089567DF7B
S113027086E69EE00197F1F7000088E2C3DF81E0A3
S1130280C1DF86E0BFDF8EE0BDDF80E8BBCF08952D
S113029080E8B8CF0895823069F018F4813031F0E5
S11302A00895833059F0843069F008958FE7860FFC
S11302B0A9CF08958FEB860FA5CF089583E9860F04
S11302C0A1CF089583ED860F9DCF0895CF93C42FBA
S11302D0E2DF2C2F207F98B19F7098B988B1822BD0
S11302E088B988B1816088B988B18D7F88B988B1AF
S11302F0846088B98FEF97E40197F1F700C000009C
S113030088B18B7F88B9C295C07F88B18F7088B956
S113031088B1C82BC8B988B1816088B988B18D7F8C
S113032088B988B1846088B98FEF97E40197F1F7B1
S113033000C0000088B18B7F88B9CF9108950F93D6
S11303401F93CF93DF93082F162FEA0105C0612F67
S1130350802FBCDF21961F5F48814111F8CFDF91C8
S1130360CF911F910F910895EF92FF920F931F93D6
S1130370CF93DF93D82FC62F7A0189018CDFFF201A
S11303804CF4F194E194F10840E052E06C2F8D2F8D
S1130390D6DFCF5FDD2311F0C11102C079DF03C0C6
S11303A06C2F8D2F78DF0530110589F4C70160E1CA
S11303B077E227D1AB01405D5F4F40930E0250932B
S11303C00F026C2F8D2F82DFCF5F81E001C080E0B0
S11303D00430110511F0813059F5C70168EE73E05E
S11303E010D170931102609310029B01ADECBCEC30
S11303F01BD1969587959695879596958795AC018B
S1130400440F551F880F991F880F991F880F991F34
S1130410840F951F281B390BA901405D5F4F509332
S11304201902409318026C2F8D2F50DFCF5F81E0AB
S11304300330110511F0813059F5C70164E670E00D
S1130440E0D070931102609310029B01ADECBCEC00
S1130450EBD0969587959695879596958795AC015B
S1130460440F551F880F991F880F991F880F991FD4
S1130470840F951F281B390BA901405D5F4F5093D2
S11304801502409314026C2F8D2F20DFCF5F81E083
S11304900230110511F0813059F5C7016AE070E0AE
S11304A0B0D070931102609310029B01ADECBCECD0
S11304B0BBD0969587959695879596958795AC012B
S11304C0440F551F880F991F880F991F880F991F74
S11304D0840F951F281B390BA901405D5F4F509372
S11304E01302409312026C2F8D2FF0DECF5F81E058
S11304F00130110511F0813079F4C7016AE070E030
S113050080D0AC01405D5F4F4093160250931702B8
S11305106C2F8D2FDBDECF5F0630110524F045E410
S11305206C2F8D2FD3DEDF91CF911F910F91FF9010
S1130530EF90089510BA11BA0895EAE7F0E08081C7
S113054086688083808186788083EBE7F0E0808111
S1130550807B8083ECE7F0E08081807680838081FB
S11305608064808380818062808380B7806880BF5C
S11305700895883028F0EBE7F0E09081986090834C
S11305808770ECE7F0E09081892B8083EAE7F0E064
S113059080818064808380917A0084FFFCCF809185
S11305A07900EAE7F0E0908190619083EBE7F0E076
S11305B09081977F9083ECE7F0E09081907E908328
S11305C00895CF93DF93C82FD62F842FD2DF809343
S11305D01A02482F50E023E030E06D2F8C2FC4DE48
S11305E0DF91CF910895A6DFA8DF9CDD40DE42E0D5
S11305F052E061E081E0A3DE41B36BE081E0E1DF42
S1130600FBCF97FB072E16F4009406D077FD08D095
S11306101AD007FC05D03EF4909581959F4F08951C
S1130620709561957F4F0895A29FB001B39FC0015B
S1130630A39F700D811D1124911DB29F700D811D0A
S11306401124911D0895AA1BBB1B51E107C0AA1FC9
S1130650BB1FA617B70710F0A61BB70B881F991F5F
S11306605A95A9F780959095BC01CD010895F89409
S1050670FFCFB6
S11106722D004144432056616C75653A00002A
S9030000FC
