:100000000C942A000C9434000C9434000C943400AA
:100010000C9434000C9434000C9434000C94340090
:100020000C9434000C9434000C9434000C94340080
:100030000C9434000C9434000C9434000C94340070
:100040000C9434000C9434000C9434000C94340060
:100050000C94340011241FBECFE5D4E0DEBFCDBF29
:100060000E9493000C94AE000C9400008BBB84E0C3
:1000700088BB8FEC97E00197F1F700C0000018BA39
:100080009FE728E381E0915020408040E1F700C0E5
:100090000000089588E30E9436008FEC97E00197F6
:1000A000F1F700C0000081E00E9436008FEC97E07D
:1000B0000197F1F700C000008EE00E9436008FEC3F
:1000C00097E00197F1F700C0000080E80E94360039
:1000D0008FEC97E00197F1F700C0000008958BBB0B
:1000E00085E088BB8FEC97E00197F1F700C0000036
:1000F00081E088BB9FE728E381E091502040804069
:10010000E1F700C0000008958AB188618AB980B51E
:100110008E6880BD83E389B910BC08955F9BFECFD4
:100120008CB190E008958FEF8ABB87E087BB0E9477
:100130004A002FE788E391E0215080409040E1F7AA
:1001400000C000000E9484000E948E00C82F80EC36
:100150000E9436008C2F0E946F00F6CFF894FFCFDC
:00000001FF
