:100000000C942A000C943F000C943F000C943F0089
:100010000C943F000C943F000C943F000C943F0064
:100020000C943F000C943F000C943F000C943F0054
:100030000C943F000C943F000C943F000C943F0044
:100040000C943F000C943F000C943F000C943F0034
:100050000C943F0011241FBECFE5D8E0DEBFCDBF1A
:1000600010E0A0E6B0E0EEE0F1E002C005900D92F5
:10007000AA36B107D9F70E9441000C9485000C9470
:100080000000CF93DF93CDB7DEB72A970FB6F89471
:10009000DEBF0FBECDBF8FEF87BB8ABB8AE0E0E635
:1000A000F0E0DE01119601900D928A95E1F780E073
:1000B00090E004C0CA0102C080E090E0AC014F5F54
:1000C0005F4FE1E0F0E0EC0FFD1FE80FF91F8081CA
:1000D00088BB80E090E012C0E1E0F0E0EC0FFD1F93
:1000E000E80FF91F20812BBB2FEF39E668E1215083
:1000F00030406040E1F700C0000001968A30910571
:0E0100005CF34A305105B1F6D7CFF894FFCF2B
:0A010E00FC60DAF266B6BEE0FEF611
:00000001FF
